:020000040800F2
:100000000028002001130008911200089712000830
:100010009D120008A3120008A912000800000000A9
:10002000000000000000000000000000AF12000807
:10003000BB12000800000000C7120008D31200081D
:100040004913000849130008491300084913000820
:100050004913000849130008491300084913000810
:100060004913000849130008491300084913000800
:1000700049130008491300084913000849130008F0
:1000800049130008491300084913000849130008E0
:1000900049130008491300084913000849130008D0
:1000A00049130008491300084913000849130008C0
:1000B000E11200084913000800000000491300087D
:1000C0004913000800000000000000004913000868
:1000D0000000000049130008491300080000000058
:1000E00049130008491300084913000800000000E4
:1000F0000000000000000000000000000000000000
:0C01000000000000000000005FF808F1A3
:10010C0010B5054C237833B9044B13B10448AFF345
:10011C0000800123237010BD74000020000000003B
:10012C006029000808B5034B1BB103490348AFF322
:10013C00008008BD00000000780000206029000845
:10014C0080B582B000AF786001227E21034801F0B7
:10015C00F8FB00BF0837BD4680BD00BF000801405A
:10016C0080B500AF694B1B68042B00F2C38001A261
:10017C0052F823F0A9010008D70100083D0200083D
:10018C00A302000895010008604B00221A605F4B27
:10019C001B68184600F0A4FD00F014FB00F0C0F83A
:1001AC005A4B1B68184600F09BFD00F00BFB00F04F
:1001BC00C9FA0346002B00F09F80544B01221A60B1
:1001CC00534B1B68534A136096E00120FFF7B8FFAE
:1001DC004E4B1B68184600F083FD00F0F3FA00F05C
:1001EC00B1FA0346002B07D0484B02221A604A4B47
:1001FC001B68484A136081E000F0B6FA0346002BF6
:10020C000CD0444B1B680133424A1360414B1B68B2
:10021C00632B73DD3F4B01221A606FE000F0B6FADE
:10022C000346002B6AD03B4B1B68394A136065E0D0
:10023C000220FFF785FF354B1B68184600F050FD78
:10024C0000F0C0FA00F07EFA0346002B07D02F4BCB
:10025C0003221A60314B1B682E4A136050E000F0E9
:10026C0083FA0346002B0CD02A4B1B680133294A16
:10027C001360284B1B68632B42DD264B01221A604E
:10028C003EE000F083FA0346002B39D0214B1B686B
:10029C00214A136034E00320FFF752FF1B4B1B680D
:1002AC00184600F01DFD00F08DFA00F04BFA0346E5
:1002BC00002B03D0154B00221A6023E000F054FAF7
:1002CC000346002B0CD0134B1B680133114A1360EF
:1002DC00104B1B68632B15DD0E4B01221A6011E0CD
:1002EC0000F054FA0346002B0CD00A4B1B680B4A47
:1002FC00136007E000BF06E000BF04E000BF02E0AF
:10030C0000BF00E000BF00BF80BD00BF00000020A8
:10031C000C00002090000020100000201400002091
:10032C0080B500AFAC4B1B68013B032B00F29F80E8
:10033C0001A252F823F000BF8B030008DB03000876
:10034C002B0400085503000801220221A34801F0E8
:10035C00F8FA01220421A14801F0F3FA0122082144
:10036C009E4801F0EEFA9C4B01221A609C4B1B68D4
:10037C009C4A13604FF47A7000F088FE7EE00022F5
:10038C000221964801F0DDFA01220421934801F084
:10039C00D8FA01220821914801F0D3FA924B1B683C
:1003AC00012B66D14FF47A7000F070FE8D4B1B68F8
:1003BC00013B8C4A13608B4B1B68002B59DC864B22
:1003CC0003221A60894B1B68864A136051E0012294
:1003DC000221824801F0B5FA002204217F4801F085
:1003EC00B0FA012208217D4801F0ABFA7E4B1B6864
:1003FC00012B40D14FF47A7000F048FE794B1B680A
:10040C00013B784A1360774B1B68002B33DC724B33
:10041C0001221A60724B1B68724A13602BE0012296
:10042C0002216E4801F08DFA012204216B4801F083
:10043C0088FA00220821694801F083FA6A4B1B688C
:10044C00012B1AD14FF47A7000F020FE654B1B681B
:10045C00013B644A1360634B1B68002B0DDC5E4B45
:10046C0002221A60624B1B685E4A136005E000BFF3
:10047C0004E000BF02E000BF00E000BF5D4B1B6862
:10048C00013B032B00F29F8001A252F823F000BF26
:10049C00E30400083305000883050008AD040008D8
:1004AC00012210214D4801F04CFA012220214B4829
:1004BC0001F047FA01224021484801F042FA4D4B25
:1004CC0003221A60494B1B684B4A13604FF47A7035
:1004DC0000F0F6FD7EE000221021404801F031FAD8
:1004EC00012220213D4801F02CFA012240213B48F9
:1004FC0001F027FA414B1B68012B66D14FF47A703F
:10050C0000F0DEFD3C4B1B68013B3B4A13603A4B51
:10051C001B68002B59DC374B03221A60334B1B68CA
:10052C00354A136051E0012210212C4801F009FAE0
:10053C0000222021294801F004FA012240212748F9
:10054C0001F0FFF92D4B1B68012B40D14FF47A7051
:10055C0000F0B6FD284B1B68013B274A1360264B65
:10056C001B68002B33DC234B01221A601C4B1B68CD
:10057C00214A13602BE001221021184801F0E1F907
:10058C0001222021154801F0DCF9002240211348FA
:10059C0001F0D7F9194B1B68012B1AD14FF47A7063
:1005AC0000F08EFD144B1B68013B134A1360124B79
:1005BC001B68002B0DDC0F4B02221A600C4B1B68C6
:1005CC000D4A136005E000BF04E000BF02E000BF6D
:1005DC0000E000BF00BF80BD040000200008014007
:1005EC000C00002018000020A8000020140000209F
:1005FC0010000020080000201C000020B00000208B
:10060C0080B500AF174B5B68164A9360154B1B689F
:10061C00144A53604FF40051134801F07BF9034620
:10062C001A46104B1A600F4B9A680E4B5B689A4235
:10063C0016D10C4B5A680B4B1B689A4210D1094BC4
:10064C009A68084BDB689A420AD0064B9B68054AAD
:10065C00D360044B9B68002B02D1024B01221A6120
:10066C0000BF80BD200000200010014080B500AF0D
:10067C00174B5B68164A9360154B1B68144A536002
:10068C004FF48041134801F045F903461A46104BCC
:10069C001A600F4B9A680E4B5B689A4216D10C4B42
:1006AC005A680B4B1B689A4210D1094B9A68084B3D
:1006BC00DB689A420AD0064B9B68054AD360044B10
:1006CC009B68002B02D1024B01221A6100BF80BD36
:1006DC00340000200010014080B500AF174B5B6860
:1006EC00164A9360154B1B68144A53604FF4004133
:1006FC00134801F00FF903461A46104B1A600F4BC2
:10070C009A680E4B5B689A4216D10C4B5A680B4B8D
:10071C001B689A4210D1094B9A68084BDB689A42C5
:10072C000AD0064B9B68054AD360044B9B68002B90
:10073C0002D1024B01221A6100BF80BD480000208B
:10074C000010014080B400AF064B1B69012B04D193
:10075C00044B00221A61012300E000231846BD4619
:10076C0080BC70472000002080B400AF064B1B6992
:10077C00012B04D1044B00221A61012300E0002359
:10078C001846BD4680BC70473400002080B400AFD2
:10079C00064B1B69012B04D1044B00221A61012367
:1007AC0000E000231846BD4680BC7047480000207E
:1007BC0080B500AFFFF724FFFFF758FFFFF78CFF62
:1007CC0000BF80BD80B500AF3C4B1B68042B6AD8C2
:1007DC0001A252F823F000BF0B08000835080008EE
:1007EC005F08000889080008F9070008334B00224D
:1007FC001A60334B1B68184600F07CFC5CE0002050
:10080C0000F064F82F4B1B68184600F0D9F82E4BFB
:10081C001B68012B49D1294B01221A60284B1B68FC
:10082C00184600F067FC40E0012000F04FF8254B23
:10083C005B68184600F0C4F8234B1B68012B36D1BB
:10084C001E4B02221A601E4B1B68184600F052FC0D
:10085C002DE0022000F03AF81A4B9B68184600F085
:10086C00AFF8194B1B68012B23D1144B03221A60D0
:10087C00134B1B68184600F03DFC1AE0032000F0F7
:10088C0025F8104BDB68184600F09AF80E4B1B68E5
:10089C00012B10D1094B00221A60094B1B6818461A
:1008AC0000F028FC07E000BF06E000BF04E000BF3A
:1008BC0002E000BF00E000BF00BF80BD6000002070
:1008CC005C00002094000020B800002080B582B0AD
:1008DC0000AF78607B68032B6AD801A252F823F032
:1008EC00FD0800082D0900085D0900088D090008A5
:1008FC0000228021314801F024F801224FF480714C
:10090C002E4801F01EF801224FF400712B4801F023
:10091C0018F801224FF48061284801F012F848E0E1
:10092C0001228021254801F00CF800224FF480713F
:10093C00224801F006F801224FF400711F4801F023
:10094C0000F801224FF480611C4800F0FAFF30E0FF
:10095C0001228021194800F0F4FF01224FF480712C
:10096C00164800F0EEFF00224FF40071134800F01F
:10097C00E8FF01224FF48061104800F0E2FF18E01C
:10098C00012280210D4800F0DCFF01224FF4807120
:10099C000A4800F0D6FF01224FF40071074800F01E
:1009AC00D0FF00224FF48061044800F0CAFF00E041
:1009BC0000BF00BF0837BD4680BD00BF0008014026
:1009CC0080B582B000AF78607B68092B00F2808123
:1009DC0001A252F823F000BF0D0A0008550A0008C6
:1009EC009D0A0008E50A00082D0B0008750B00088D
:1009FC00BD0B0008050C00084D0C0008950C0008F8
:100A0C0000220121B54800F09CFF00220221B348CE
:100A1C0000F097FF00220421B04800F092FF002262
:100A2C000821AE4800F08DFF00221021AB4800F0E9
:100A3C0088FF00222021A94800F083FF01224021D9
:100A4C00A64800F07EFF44E101220121A34800F0FA
:100A5C0078FF00220221A14800F073FF002204213C
:100A6C009E4800F06EFF012208219C4800F069FFAF
:100A7C0001221021994800F064FF0122202197489F
:100A8C0000F05FFF01224021944800F05AFF20E162
:100A9C0000220121914800F054FF002202218F48CE
:100AAC0000F04FFF012204218C4800F04AFF002285
:100ABC0008218A4800F045FF00221021874800F0E9
:100ACC0040FF01222021854800F03BFF00224021FD
:100ADC00824800F036FFFCE0002201217F4800F044
:100AEC0030FF002202217D4800F02BFF0022042160
:100AFC007A4800F026FF00220821784800F021FFF8
:100B0C0001221021754800F01CFF0122202173489E
:100B1C0000F017FF00224021704800F012FFD8E0CF
:100B2C00012201216D4800F00CFF002202216B48CC
:100B3C0000F007FF00220421684800F002FF0122A8
:100B4C000821664800F0FDFE01221021634800F0E8
:100B5C00F8FE00222021614800F0F3FE0022402123
:100B6C005E4800F0EEFEB4E0002201215B4800F08C
:100B7C00E8FE01220221594800F0E3FE0022042184
:100B8C00564800F0DEFE00220821544800F0D9FE41
:100B9C0001221021514800F0D4FE002220214F48A0
:100BAC0000F0CFFE002240214C4800F0CAFE90E03D
:100BBC0000220121494800F0C4FE012202214748CD
:100BCC0000F0BFFE00220421444800F0BAFE0022CF
:100BDC000821424800F0B5FE002210213F4800F0E9
:100BEC00B0FE002220213D4800F0ABFE0022402147
:100BFC003A4800F0A6FE6CE000220121374800F0D4
:100C0C00A0FE00220221354800F09BFE00220421A8
:100C1C00324800F096FE01220821304800F091FE87
:100C2C00012210212D4800F08CFE012220212B489E
:100C3C0000F087FE01224021284800F082FE48E0A7
:100C4C0000220121254800F07CFE002202212348CD
:100C5C0000F077FE00220421204800F072FE0022F2
:100C6C0008211E4800F06DFE002210211B4800F0E8
:100C7C0068FE00222021194800F063FE002240216A
:100C8C00164800F05EFE24E000220121134800F01B
:100C9C0058FE00220221114800F053FE00220421CC
:100CAC000E4800F04EFE002208210C4800F049FED0
:100CBC0001221021094800F044FE0022202107489F
:100CCC0000F03FFE00224021044800F03AFE00E014
:100CDC0000BF00BF0837BD4680BD00BF000C0140FF
:100CEC0080B483B000AF78607B68032B00F29F80E8
:100CFC0001A252F823F000BF150D00087B0D00086F
:100D0C00BB0D0008FB0D00084C4B1B684C4A82FBCA
:100D1C0003129210DB17D31A4A4A1360474B196817
:100D2C00474B83FB01239A10CB17D21A13469B0017
:100D3C0013445B00CA1A434B5A60434B1B68404A2E
:100D4C0082FB03129210DB17D31A3E4A93603E4B80
:100D5C0019683B4B83FB01239A10CB17D21A13460D
:100D6C009B0013445B00CA1A364BDA6060E0374BC9
:100D7C001B68334A82FB03129210DB17D31A314AD9
:100D8C001360324B19682E4B83FB01239A10CB173F
:100D9C00D21A13469B0013445B00CA1A294B5A60A3
:100DAC00284B00229A60274B0222DA6040E0274B46
:100DBC001B68234A82FB03129210DB17D31A214AB9
:100DCC001360224B19681E4B83FB01239A10CB171F
:100DDC00D21A13469B0013445B00CA1A194B5A6073
:100DEC00184B00229A60174B0322DA6020E0174B55
:100DFC001B68134A82FB03129210DB17D31A114A99
:100E0C001360124B19680E4B83FB01239A10CB17FE
:100E1C00D21A13469B0013445B00CA1A094B5A6042
:100E2C00084B00229A60074B0422DA6000E000BFF6
:100E3C0000BF0C37BD4680BC704700BF18000020B7
:100E4C0067666666940000201C000020900000205D
:100E5C0080B500AF00F074FA00F00CF800F092F8D6
:100E6C0000F044F8024801F0B1F9FFF779F9FCE71A
:100E7C00BC00002080B590B000AF07F11803282209
:100E8C000021184601F05EFD3B1D00221A605A60DD
:100E9C009A60DA601A610223BB610123BB621023E2
:100EAC00FB6200237B6307F11803184600F062FD18
:100EBC000346002B01D000F0E3F80F237B600023E6
:100ECC00BB600023FB6000233B6100237B613B1D67
:100EDC000021184600F0CEFF0346002B01D000F095
:100EEC00CFF800BF4037BD4680BD000080B586B04E
:100EFC0000AF07F1080300221A605A609A60DA60AA
:100F0C003B4600221A605A601D4B4FF080421A601B
:100F1C001B4B41F63F725A60194B00229A60184BDA
:100F2C000922DA60164B00221A61154B00229A61D5
:100F3C00134801F0FBF80346002B01D000F0A0F899
:100F4C004FF48053BB6007F1080319460C4801F0BD
:100F5C0091FA0346002B01D000F092F800233B607D
:100F6C0000237B603B461946054801F05DFC0346B7
:100F7C00002B01D000F084F800BF1837BD4680BDAF
:100F8C00BC00002080B588B000AF07F11003002230
:100F9C001A605A609A60DA602F4B9B692E4A43F0B4
:100FAC00100393612C4B9B6903F01003FB60FB68EF
:100FBC00294B9B69284A43F004039361264B9B6998
:100FCC0003F00403BB60BB68234B9B69224A43F0CC
:100FDC0008039361204B9B6903F008037B607B68DB
:100FEC00002240F2FE711D4800F0ABFC002248F2DA
:100FFC007F011B4800F0A5FC4FF460433B610023CC
:10100C007B610123BB6107F110031946154800F001
:10101C0007FB40F2FE733B6101237B610023BB6144
:10102C000223FB6107F1100319460C4800F0F8FA93
:10103C0048F27F033B6101237B610023BB610223E8
:10104C00FB6107F110031946054800F0E9FA00BFEF
:10105C002037BD4680BD00BF001002400008014093
:10106C00000C01400010014080B582B000AF7860E8
:10107C0000F0A8F8FFF79CFB00BF0837BD4680BD09
:10108C0080B400AF72B600BFFEE7000080B483B03E
:10109C0000AF7860074B1B687A6892FBF3F3064A43
:1010AC001360064B00221A6000BF0C37BD4680BC93
:1010BC00704700BF64000020A4000020A80000209E
:1010CC0080B483B000AF7860074B1B687A6892FBE2
:1010DC00F3F3064A1360064B00221A6000BF0C376C
:1010EC00BD4680BC704700BF64000020AC000020EF
:1010FC00B000002080B483B000AF7860074B1B6851
:10110C007A6892FBF3F3064A1360064B00221A60CE
:10111C0000BF0C37BD4680BC704700BF6400002088
:10112C00B4000020B800002080B400AF094B1B684D
:10113C00002B0BDD074B1B68013B064A1360054B6C
:10114C001B68002B02DC044B01221A6000BFBD4659
:10115C0080BC7047A4000020A800002080B400AF21
:10116C00094B1B68002B0BDD074B1B68013B064A28
:10117C001360054B1B68002B02DC044B01221A6028
:10118C0000BFBD4680BC7047AC000020B000002002
:10119C0080B400AF094B1B68002B0BDD074B1B68A1
:1011AC00013B064A1360054B1B68002B02DC044B09
:1011BC0001221A6000BFBD4680BC7047B4000020FD
:1011CC00B800002080B500AFFFF7AEFFFFF7C6FFF9
:1011DC00FFF7DEFF00BF80BD80B485B000AF154BBC
:1011EC009B69144A43F001039361124B9B6903F012
:1011FC000103BB60BB680F4BDB690E4A43F08053A5
:10120C00D3610C4BDB6903F080537B607B680A4B2A
:10121C005B68FB60FB6823F0E063FB60FB6843F0FA
:10122C008063FB60044AFB68536000BF1437BD4603
:10123C0080BC7047001002400000014080B584B0B3
:10124C0000AF78607B681B68B3F1804F13D10C4BF7
:10125C00DB690B4A43F00103D361094BDB6903F0F3
:10126C000103FB60FB68002200211C2000F0A1F9A7
:10127C001C2000F0BAF900BF1037BD4680BD00BF7E
:10128C000010024080B400AFFEE780B400AFFEE770
:10129C0080B400AFFEE780B400AFFEE780B400AFCF
:1012AC00FEE780B400AF00BFBD4680BC704780B481
:1012BC0000AF00BFBD4680BC704780B400AF00BF1C
:1012CC00BD4680BC704780B500AF00F07FF800BF12
:1012DC0080BD000080B500AF024800F0C3FF00BF26
:1012EC0080BD00BFBC00002080B400AF00BFBD4675
:1012FC0080BC7047FFF7F8FF0B480C490C4A0023E1
:10130C0002E0D458C4500433C4188C42F9D3094AAF
:10131C00094C002301E013600432A242FBD301F01C
:10132C00EDFAFFF795FD70470000002074000020D7
:10133C00A42900087400002008010020FEE700002A
:10134C0080B500AF084B1B68074A43F010031360CD
:10135C00032000F023F90F2000F008F8FFF73CFF02
:10136C000023184680BD00BF0020024080B582B02B
:10137C0000AF7860124B1A68124B1B7819464FF469
:10138C007A73B3FBF1F3B2FBF3F3184600F03BF9BD
:10139C000346002B01D001230EE07B680F2B0AD8EB
:1013AC00002279684FF0FF3000F003F9064A7B68A1
:1013BC001360002300E0012318460837BD4680BDAA
:1013CC0068000020700000206C00002080B400AF8A
:1013DC00054B1B781A46054B1B681344034A1360D4
:1013EC0000BFBD4680BC7047700000200401002087
:1013FC0080B400AF024B1B681846BD4680BC7047DA
:10140C000401002080B485B000AF78607B6803F0E5
:10141C000703FB600C4BDB68BB60BA684FF6FF033D
:10142C001340BB60FB681A02BB68134343F0BF63F5
:10143C0043F40033BB60044ABB68D36000BF14376D
:10144C00BD4680BC704700BF00ED00E080B400AF2B
:10145C00044BDB681B0A03F007031846BD4680BC2F
:10146C00704700BF00ED00E080B483B000AF0346CE
:10147C00FB7197F90730002B0BDBFB7903F01F0294
:10148C00064997F907305B09012000FA02F241F88E
:10149C00232000BF0C37BD4680BC704700E100E044
:1014AC0080B483B000AF03463960FB7197F9073005
:1014BC00002B0ADB3B68DAB20C4997F907301201B2
:1014CC00D2B20B4483F800230AE03B68DAB2084935
:1014DC00FB7903F00F03043B1201D2B20B441A76D2
:1014EC0000BF0C37BD4680BC704700BF00E100E078
:1014FC0000ED00E080B489B000AFF860B9607A60AC
:10150C00FB6803F00703FB61FB69C3F10703042BC2
:10151C0028BF0423BB61FB690433062B02D9FB698A
:10152C00033B00E000237B614FF0FF32BB6902FA02
:10153C0003F3DA43BB681A407B699A404FF0FF31E2
:10154C007B6901FA03F3D9437B680B4013431846BC
:10155C002437BD4680BC704780B582B000AF786040
:10156C007B68013BB3F1807F01D301230FE00A4A72
:10157C007B68013B53600F214FF0FF30FFF790FF6A
:10158C00054B00229A60044B07221A600023184670
:10159C000837BD4680BD00BF10E000E080B582B0CA
:1015AC0000AF78607868FFF72DFF00BF0837BD46A5
:1015BC0080BD80B586B000AF0346B9607A60FB731E
:1015CC0000237B61FFF742FF78617A68B96878691C
:1015DC00FFF790FF024697F90F3011461846FFF7B8
:1015EC005FFF00BF1837BD4680BD80B582B000AF2D
:1015FC000346FB7197F907301846FFF735FF00BF1C
:10160C000837BD4680BD80B582B000AF7860786881
:10161C00FFF7A2FF034618460837BD4680BD000001
:10162C0080B48BB000AF7860396000237B620023FC
:10163C003B6248E101227B6A02FA03F3FB613B68DF
:10164C001B68FA691340BB61BA69FB699A4240F0A6
:10165C0037813B685B68A34A93425ED0A14A9342B0
:10166C0075D8A14A934258D09F4A93426FD89F4A4B
:10167C00934252D09D4A934269D89D4A93424CD092
:10168C009B4A934263D89B4A934246D0994A9342D1
:10169C005DD8122B2AD8122B59D801A252F823F05C
:1016AC002717000801170008131700085517000822
:1016BC005B1700085B1700085B1700085B17000836
:1016CC005B1700085B1700085B1700085B17000826
:1016DC005B1700085B1700085B1700085B17000816
:1016EC005B170008091700081D170008824A93426F
:1016FC0013D02CE03B68DB683B6229E03B68DB687D
:10170C0004333B6224E03B68DB6808333B621FE038
:10171C003B68DB680C333B621AE03B689B68002B30
:10172C0002D104233B6213E03B689B68012B05D17B
:10173C0008233B627B68FA691A6109E008233B6263
:10174C007B68FA695A6103E000233B6200E000BF4A
:10175C00BB69FF2B01D87B6801E07B6804337B619C
:10176C00BB69FF2B02D87B6A9B0002E07B6A083BBB
:10177C009B003B617B691A680F213B6901FA03F3FB
:10178C00DB431A40396A3B6901FA03F31A437B695C
:10179C001A603B685B6803F08053002B00F090806C
:1017AC00564B9B69554A43F001039361534B9B691C
:1017BC0003F00103BB60BB68514A7B6A9B08023390
:1017CC0052F82330FB607B6A03F003039B000F226B
:1017DC0002FA03F3DB43FA681340FB607B68494A67
:1017EC0093420DD07B68484A934207D07B68474AA6
:1017FC00934201D1022304E0032302E0012300E021
:10180C0000237A6A02F0030292009340FA681343B1
:10181C00FB603B497B6A9B080233FA6841F8232042
:10182C003B685B6803F48013002B06D0384B9A6836
:10183C003749BB6913438B6006E0354B9A68BB692B
:10184C00DB43334913408B603B685B6803F4001344
:10185C00002B06D02E4BDA682D49BB691343CB60A5
:10186C0006E02B4BDA68BB69DB4329491340CB609C
:10187C003B685B6803F40033002B06D0244B5A689A
:10188C002349BB6913434B6006E0214B5A68BB6983
:10189C00DB431F4913404B603B685B6803F48033A8
:1018AC00002B06D01A4B1A681949BB6913430B60FD
:1018BC0006E0174B1A68BB69DB43154913400B60F4
:1018CC007B6A01337B623B681A687B6A22FA03F3FA
:1018DC00002B7FF4AFAE00BF00BF2C37BD4680BCE1
:1018EC00704700BF000032100000311000002210C1
:1018FC000000211000001210000011100010024016
:10190C000000014000080140000C014000100140A3
:10191C000004014080B485B000AF78600B467B803A
:10192C007B689A687B881340002B02D00123FB73E1
:10193C0001E00023FB73FB7B18461437BD4680BCCB
:10194C00704780B483B000AF78600B467B80134641
:10195C007B707B78002B03D07A887B681A6103E05C
:10196C007B881A047B681A6100BF0C37BD4680BCAB
:10197C007047000080B586B000AF78607B68002BA4
:10198C0001D101236CE27B681B6803F00103002B7F
:10199C0000F08780924B5B6803F00C03042B0CD097
:1019AC008F4B5B6803F00C03082B12D18C4B5B68DC
:1019BC0003F48033B3F5803F0BD1894B1B6803F4E0
:1019CC000033002B6CD07B685B68002B68D1012343
:1019DC0046E27B685B68B3F5803F06D1804B1B68A1
:1019EC007F4A43F4803313602EE07B685B68002BE6
:1019FC000CD17B4B1B687A4A23F480331360784BF1
:101A0C001B68774A23F4802313601DE07B685B68B6
:101A1C00B3F5A02F0CD1724B1B68714A43F4802391
:101A2C0013606F4B1B686E4A43F4803313600BE0FA
:101A3C006B4B1B686A4A23F480331360684B1B683A
:101A4C00674A23F4802313607B685B68002B13D0F8
:101A5C00FFF7CEFC386108E0FFF7CAFC02463B6991
:101A6C00D31A642B01D90323FAE15D4B1B6803F4F1
:101A7C000033002BF0D014E0FFF7BAFC386108E01B
:101A8C00FFF7B6FC02463B69D31A642B01D903233A
:101A9C00E6E1534B1B6803F40033002BF0D100E05C
:101AAC0000BF7B681B6803F00203002B63D04C4B18
:101ABC005B6803F00C03002B0BD0494B5B6803F005
:101ACC000C03082B1CD1464B5B6803F48033002BB2
:101ADC0016D1434B1B6803F00203002B05D07B6827
:101AEC001B69012B01D00123BAE13D4B1B6823F08C
:101AFC00F8027B685B69DB00394913430B603AE001
:101B0C007B681B69002B20D0364B01221A60FFF733
:101B1C006FFC386108E0FFF76BFC02463B69D31A97
:101B2C00022B01D903239BE12D4B1B6803F002030D
:101B3C00002BF0D02A4B1B6823F0F8027B685B6902
:101B4C00DB00274913430B6015E0264B00221A607B
:101B5C00FFF74EFC386108E0FFF74AFC02463B6990
:101B6C00D31A022B01D903237AE11D4B1B6803F016
:101B7C000203002BF0D17B681B6803F00803002BD9
:101B8C003AD07B689B69002B19D0174B01221A6045
:101B9C00FFF72EFC386108E0FFF72AFC02463B6990
:101BAC00D31A022B01D903235AE10D4B5B6A03F0C4
:101BBC000203002BF0D0012000F09AFA1CE00A4B33
:101BCC0000221A60FFF714FC38610FE0FFF710FCDD
:101BDC0002463B69D31A022B08D9032340E100BF0C
:101BEC000010024000004242800442429E4B5B6A5D
:101BFC0003F00203002BE9D17B681B6803F004039C
:101C0C00002B00F0A6800023FB75974BDB6903F0DB
:101C1C008053002B0DD1944BDB69934A43F08053D6
:101C2C00D361914BDB6903F08053BB60BB6801232C
:101C3C00FB758E4B1B6803F48073002B18D18B4BF8
:101C4C001B688A4A43F480731360FFF7D1FB386139
:101C5C0008E0FFF7CDFB02463B69D31A642B01D990
:101C6C000323FDE0814B1B6803F48073002BF0D041
:101C7C007B68DB68012B06D17B4B1B6A7A4A43F0ED
:101C8C00010313622DE07B68DB68002B0CD1764BD3
:101C9C001B6A754A23F001031362734B1B6A724A69
:101CAC0023F0040313621CE07B68DB68052B0CD16A
:101CBC006D4B1B6A6C4A43F0040313626A4B1B6A3C
:101CCC00694A43F0010313620BE0674B1B6A664AD7
:101CDC0023F001031362644B1B6A634A23F0040371
:101CEC0013627B68DB68002B15D0FFF781FB386132
:101CFC000AE0FFF77DFB02463B69D31A41F28832BA
:101D0C00934201D90323ABE0574B1B6A03F0020348
:101D1C00002BEED014E0FFF76BFB38610AE0FFF705
:101D2C0067FB02463B69D31A41F28832934201D9D0
:101D3C00032395E04C4B1B6A03F00203002BEED1FE
:101D4C00FB7D012B05D1484BDB69474A23F08053BF
:101D5C00D3617B68DB69002B00F08180424B5B68B0
:101D6C0003F00C03082B61D07B68DB69022B46D196
:101D7C003F4B00221A60FFF73BFB386108E0FFF78E
:101D8C0037FB02463B69D31A022B01D9032367E0C8
:101D9C00354B1B6803F00073002BF0D17B681B6A7A
:101DAC00B3F5803F08D1304B5B6823F400327B687D
:101DBC009B682D4913434B602B4B5B6823F47412C7
:101DCC007B68196A7B685B6A0B43274913434B603A
:101DDC00274B01221A60FFF70BFB386108E0FFF775
:101DEC0007FB02463B69D31A022B01D9032337E0C8
:101DFC001D4B1B6803F00073002BF0D02FE01C4B25
:101E0C0000221A60FFF7F4FA386108E0FFF7F0FAE5
:101E1C0002463B69D31A022B01D9032320E0124B53
:101E2C001B6803F00073002BF0D118E07B68DB69B2
:101E3C00012B01D1012313E00B4B5B68FB60FB68AA
:101E4C0003F480327B681B6A9A4206D1FB6803F468
:101E5C0070127B685B6A9A4201D0012300E0002378
:101E6C0018461837BD4680BD001002400070004077
:101E7C006000424280B584B000AF786039607B6806
:101E8C00002B01D10123D0E06A4B1B6803F0070340
:101E9C003A689A4210D9674B1B6823F007026549D0
:101EAC003B6813430B60634B1B6803F007033A68F2
:101EBC009A4201D00123B8E07B681B6803F002034F
:101ECC00002B20D07B681B6803F00403002B05D08B
:101EDC00594B5B68584A43F4E06353607B681B685A
:101EEC0003F00803002B05D0534B5B68524A43F4B4
:101EFC0060535360504B5B6823F0F0027B689B6827
:101F0C004D4913434B607B681B6803F00103002BA6
:101F1C0040D07B685B68012B07D1474B1B6803F4EF
:101F2C000033002B15D101237FE07B685B68022B0B
:101F3C0007D1414B1B6803F00073002B09D101231F
:101F4C0073E03D4B1B6803F00203002B01D101230E
:101F5C006BE0394B5B6823F003027B685B683649A6
:101F6C0013434B60FFF744FAF8600AE0FFF740FABE
:101F7C000246FB68D31A41F28832934201D90323FB
:101F8C0053E02D4B5B6803F00C027B685B689B0095
:101F9C009A42EBD1274B1B6803F007033A689A422D
:101FAC0010D2244B1B6823F0070222493B681343D1
:101FBC000B60204B1B6803F007033A689A4201D070
:101FCC00012332E07B681B6803F00403002B08D06C
:101FDC00194B5B6823F4E0627B68DB68164913439A
:101FEC004B607B681B6803F00803002B09D0124B75
:101FFC005B6823F460527B681B69DB000E4913435A
:10200C004B6000F021F802460B4B5B681B0903F098
:10201C000F030A49CB5C22FA03F3094A1360094BFC
:10202C001B681846FFF7A2F9002318461037BD4667
:10203C0080BD00BF0020024000100240782900083B
:10204C00680000206C00002080B487B000AF002333
:10205C00FB600023BB6000237B6100237B600023BB
:10206C003B611E4B5B68FB60FB6803F00C03042BAD
:10207C0002D0082B03D027E0194B3B6127E0FB680B
:10208C009B0C03F00F03174AD35C7B60FB6803F4D3
:10209C008033002B10D0114B5B685B0C03F00103F9
:1020AC00114AD35CBB607B680D4A02FB03F2BB6830
:1020BC00B2FBF3F37B6104E07B680C4A02FB03F395
:1020CC007B617B693B6102E0054B3B6100BF3B6977
:1020DC0018461C37BD4680BC704700BF001002403C
:1020EC0000127A00882900089829000800093D0090
:1020FC0080B485B000AF78600A4B1B680A4AA2FB1B
:10210C0003235B0A7A6802FB03F3FB6000BFFB68E6
:10211C005A1EFA60002BF9D100BF00BF1437BD4620
:10212C0080BC704768000020D34D621080B582B02F
:10213C0000AF78607B68002B01D1012341E07B6804
:10214C0093F83D30DBB2002B06D17B68002283F87C
:10215C003C207868FFF772F87B68022283F83D20F8
:10216C007B681A687B6804331946104600F06EFAD7
:10217C007B68012283F846207B68012283F83E208D
:10218C007B68012283F83F207B68012283F8402082
:10219C007B68012283F841207B68012283F842206E
:1021AC007B68012283F843207B68012283F844205A
:1021BC007B68012283F845207B68012283F83D204F
:1021CC00002318460837BD4680BD000080B485B09A
:1021DC0000AF78607B6893F83D30DBB2012B01D007
:1021EC00012335E07B68022283F83D207B681B6865
:1021FC00DA687B681B6842F00102DA607B681B6856
:10220C00164A934209D07B681B68B3F1804F04D007
:10221C007B681B68124A934211D17B681B689B68D0
:10222C0003F00703FB60FB68062B10D07B681B6870
:10223C001A687B681B6842F001021A6007E07B6831
:10224C001B681A687B681B6842F001021A60002345
:10225C0018461437BD4680BC704700BF002C0140A7
:10226C000004004080B582B000AF78607B681B68CA
:10227C001B6903F00203022B22D17B681B68DB680D
:10228C0003F00203022B1BD17B681B686FF0020268
:10229C001A617B6801221A777B681B689B6903F0C3
:1022AC000303002B03D0786800F0B4F905E07868DC
:1022BC0000F0A7F9786800F0B6F97B6800221A776D
:1022CC007B681B681B6903F00403042B22D17B6819
:1022DC001B68DB6803F00403042B1BD17B681B68B1
:1022EC006FF004021A617B6802221A777B681B6804
:1022FC009B6903F44073002B03D0786800F08AF9D3
:10230C0005E0786800F07DF9786800F08CF97B685E
:10231C0000221A777B681B681B6903F00803082BE3
:10232C0022D17B681B68DB6803F00803082B1BD1E8
:10233C007B681B686FF008021A617B6804221A77AD
:10234C007B681B68DB6903F00303002B03D0786800
:10235C0000F060F905E0786800F053F9786800F057
:10236C0062F97B6800221A777B681B681B6903F093
:10237C001003102B22D17B681B68DB6803F0100361
:10238C00102B1BD17B681B686FF010021A617B68E5
:10239C0008221A777B681B68DB6903F44073002BF7
:1023AC0003D0786800F036F905E0786800F029F978
:1023BC00786800F038F97B6800221A777B681B6814
:1023CC001B6903F00103012B0ED17B681B68DB68D2
:1023DC0003F00103012B07D17B681B686FF001022E
:1023EC001A617868FEF740FE7B681B681B6903F076
:1023FC008003802B0ED17B681B68DB6803F08003A5
:10240C00802B07D17B681B686FF080021A6178689B
:10241C0000F06BFA7B681B681B6903F04003402BD0
:10242C000ED17B681B68DB6803F04003402B07D19F
:10243C007B681B686FF040021A61786800F0FCF84A
:10244C007B681B681B6903F02003202B0ED17B6873
:10245C001B68DB6803F02003202B07D17B681B680B
:10246C006FF020021A61786800F036FA00BF083766
:10247C00BD4680BD80B584B000AF78603960002364
:10248C00FB737B6893F83C30012B01D10223B4E041
:10249C007B68012283F83C207B68022283F83D2074
:1024AC007B681B689B68BB60BB6823F07703BB60D1
:1024BC00BB6823F47F43BB607B681B68BA689A6077
:1024CC003B681B68B3F5005F3ED0B3F5005F00F2CC
:1024DC008780B3F5805F00F08680B3F5805F7FD88E
:1024EC00702B1AD0702B7BD8602B50D0602B77D8E8
:1024FC00502B3CD0502B73D8402B58D0402B6FD83E
:10250C00302B64D0302B6BD8202B60D0202B67D88D
:10251C00002B5CD0102B5AD062E07B6818683B68AB
:10252C0099683B685A683B68DB6800F05EF97B6829
:10253C001B689B68BB60BB6843F07703BB607B6820
:10254C001B68BA689A604FE07B6818683B689968AA
:10255C003B685A683B68DB6800F047F97B681B688E
:10256C009A687B681B6842F480429A603CE07B6806
:10257C0018683B6859683B68DB681A4600F0BEF87F
:10258C007B681B685021184600F015F92CE07B681D
:10259C0018683B6859683B68DB681A4600F0DCF841
:1025AC007B681B686021184600F005F91CE07B680D
:1025BC0018683B6859683B68DB681A4600F09EF85F
:1025CC007B681B684021184600F0F5F80CE07B682E
:1025DC001A683B681B681946104600F0ECF803E0DB
:1025EC000123FB7300E000BF7B68012283F83D20D0
:1025FC007B68002283F83C20FB7B18461037BD46D5
:10260C0080BD80B483B000AF786000BF0C37BD468E
:10261C0080BC704780B483B000AF786000BF0C37CB
:10262C00BD4680BC704780B483B000AF786000BFFB
:10263C000C37BD4680BC704780B483B000AF786067
:10264C0000BF0C37BD4680BC7047000080B485B01D
:10265C0000AF786039607B681B68FB607B68254A3B
:10266C00934207D07B68B3F1804F03D07B68224A3A
:10267C00934208D1FB6823F07003FB603B685B68F6
:10268C00FA681343FB607B681A4A934207D07B6855
:10269C00B3F1804F03D07B68174A934208D1FB6893
:1026AC0023F44073FB603B68DB68FA681343FB6000
:1026BC00FB6823F080023B685B691343FB607B681B
:1026CC00FA681A603B689A687B68DA623B681A6839
:1026DC007B689A627B68074A934203D13B681A690C
:1026EC007B681A637B6801225A6100BF1437BD46B0
:1026FC0080BC7047002C01400004004080B487B0BF
:10270C0000AFF860B9607A60FB681B6A7B61FB689C
:10271C001B6A23F00102FB681A62FB689B693B6130
:10272C003B6923F0F0033B617B681B013A6913435F
:10273C003B617B6923F00A037B617A69BB681343B5
:10274C007B61FB683A699A61FB687A691A6200BF1F
:10275C001C37BD4680BC704780B487B000AFF860B2
:10276C00B9607A60FB681B6A7B61FB681B6A23F0AB
:10277C001002FB681A62FB689B693B613B6923F49E
:10278C0070433B617B681B033A6913433B617B6974
:10279C0023F0A0037B61BB681B017A6913437B6147
:1027AC00FB683A699A61FB687A691A6200BF1C3748
:1027BC00BD4680BC704780B485B000AF786039608E
:1027CC007B689B68FB60FB6823F07003FB603A68D6
:1027DC00FB68134343F00703FB607B68FA689A605D
:1027EC0000BF1437BD4680BC704780B487B000AFC3
:1027FC00F860B9607A603B60FB689B687B617B69C1
:10280C0023F47F437B613B681A027B681A43BB68E5
:10281C0013437A6913437B61FB687A699A6000BF42
:10282C001C37BD4680BC704780B485B000AF786063
:10283C0039607B6893F83C30012B01D1022341E0D5
:10284C007B68012283F83C207B68022283F83D20C0
:10285C007B681B685B68FB607B681B689B68BB6064
:10286C00FB6823F07003FB603B681B68FA6813433A
:10287C00FB607B681B68FA685A607B681B68144AAB
:10288C00934209D07B681B68B3F1804F04D07B68FE
:10289C001B68104A93420CD1BB6823F08003BB60C9
:1028AC003B685B68BA681343BB607B681B68BA689B
:1028BC009A607B68012283F83D207B68002283F8B4
:1028CC003C20002318461437BD4680BC704700BF1F
:1028DC00002C01400004004080B483B000AF78604D
:1028EC0000BF0C37BD4680BC704780B483B000AFCE
:1028FC00786000BF0C37BD4680BC704770B50026B1
:10290C000C4D0D4C641BA410A64209D100F022F80A
:10291C0000260A4D0A4C641BA410A64205D170BDBA
:10292C0055F8043B98470136EEE755F8043B9847B9
:10293C000136F2E79C2900089C2900089C29000814
:10294C00A029000803460244934200D1704703F8C3
:10295C00011BF9E7F8B500BFF8BC08BC9E467047F0
:0C296C00F8B500BFF8BC08BC9E467047E0
:102978000000000000000000010203040607080927
:1029880002030405060708090A0B0C0D0E0F1010A8
:042998000102000038
:04299C0031010008FD
:0429A0000D0100081D
:1029A4000400000004000000040000000500000012
:1029B4000200000003000000050000000300000006
:1029C40001000000010000000100000001000000FF
:1029D40000000000010000000100000001000000F0
:1029E40001000000000000000100000001000000E0
:1029F400010000000100000000000000FA000000D7
:102A0400040000000A0000000024F400100000008C
:042A140001000000BD
:0400000508001301DB
:00000001FF
